:020000040000FA
:100000000C9462000C948A000C948A000C948A0070
:100010000C948A000C948A000C948A000C948A0038
:100020000C948A000C948A000C948A000C943B0671
:100030000C948A000C948A000C948A000C948A0018
:100040000C9499050C948A000C9409060C94E30511
:100050000C948A000C948A000C948A000C948A00F8
:100060000C948A000C948A000000000024002700F1
:100070002A0000000000250028002B0000000000DE
:1000800023002600290004040404040404040202DA
:100090000202020203030303030301020408102007
:1000A0004080010204081020010204081020000012
:1000B0000008000201000003040700000000000027
:1000C0000000F70611241FBECFEFD8E0DEBFCDBF82
:1000D00011E0A0E0B1E0E4EFFAE102C005900D927A
:1000E000A838B107D9F722E0A8E8B1E001C01D9215
:1000F000A13FB207E1F710E0C2E6D0E004C02197CB
:10010000FE010E94770BC136D107C9F70E94CC07C8
:100110000C94780D0C9400008F929F92AF92BF9236
:10012000FF920F931F93CF93DF93F090D2022BE0B7
:100130002F1508F44CC02091D40208E512E0021BF0
:10014000110927FD1395000F111F000F111F20919A
:10015000D302C8E8D0E0C21BD10927FDD395CC0F4C
:10016000DD1FCC0FDD1F4E010D2E000CAA08BB08B1
:100170009801012E000C440B550B281939094A0926
:100180005B09DC010E94FB0A24EB30E040E050E018
:100190000E94D10A820E931EA41EB51E8C169D06C7
:1001A0002CF0E801801691060CF4E4012297CC0FA4
:1001B000DD1F2FB7F8948F2D90E0FC01EE0FFF1F8D
:1001C000E80FF91FE25CFD4FD283C1832FBFDF919F
:1001D000CF911F910F91FF90BF90AF909F908F9004
:1001E000089596E0899FD0011124AD59BD4F909696
:1001F0007C936E935F9791E091969C939197E09199
:10020000D002F091D1029091CF02992339F030972A
:1002100051F0811108C080917F020994309719F044
:100220005C968C91FACF0895CF92DF92EF92FF9275
:100230000F931F9396E0899FF0011124ED59FD4F14
:1002400011A2278D30A12130310551F178F02230F3
:10025000310509F451C02330310509F452C01F9112
:100260000F91FF90EF90DF90CF9008956623B9F340
:1002700061E070E00E94F1002FB7F894809197013F
:1002800090919801A0919901B0919A012FBF80930C
:10029000BB029093BC02A093BD02B093BE02DFCF1D
:1002A0009FB7F894C0909701D0909801E090990181
:1002B000F0909A019FBF0091BB021091BC02209167
:1002C000BD023091BE02C01AD10AE20AF30A0091BF
:1002D000CD021091CE0230E020E00C151D052E0558
:1002E0003F0550F462E070E01F910F91FF90EF9096
:1002F000DF90CF900C94F1006111B1CF63E070E01A
:10030000F3CF70E060E0F0CF833081F028F48130EB
:1003100099F08230A9F008958730A9F08830C9F0AB
:100320008430B1F4809180008F7D03C08091800083
:100330008F7780938000089584B58F7784BD08956A
:1003400084B58F7DFBCF8091B0008F778093B00014
:1003500008958091B0008F7DF9CFCF93DF93282F40
:1003600030E0F901E255FF4F8491F901E656FF4F65
:10037000D491F901EA57FF4FC491CC23A1F0811128
:100380000E948401EC2FF0E0EE0FFF1FE458FF4FB6
:10039000A591B491EC91ED2381E090E009F480E027
:1003A000DF91CF91089580E090E0FACF1F93CF9333
:1003B000DF93282F30E0F901E255FF4F8491F901D6
:1003C000E656FF4FD491F901EA57FF4FC491CC2371
:1003D000A9F0162F81110E948401EC2FF0E0EE0F9E
:1003E000FF1FEE58FF4FA591B4918FB7F894EC9191
:1003F000111108C0D095DE23DC938FBFDF91CF9120
:100400001F910895DE2BF8CFCF93DF9390E0FC018E
:10041000E656FF4F24918A579F4FFC018491882311
:10042000C9F090E0880F991FFC01E859FF4FA59192
:10043000B491FC01EE58FF4FC591D49161110DC0EC
:100440009FB7F8948C91209582238C9388812823E0
:1004500028839FBFDF91CF910895623051F49FB7F9
:10046000F8943C91822F809583238C93E8812E2BE6
:10047000EFCF8FB7F894EC912E2B2C938FBFEACF50
:100480003FB7F8948091930190919401A0919501C8
:10049000B091960126B5A89B05C02F3F19F0019693
:1004A000A11DB11D3FBFBA2FA92F982F8827BC01CE
:1004B000CD01620F711D811D911D42E0660F771FF6
:1004C000881F991F4A95D1F708958F929F92AF92F6
:1004D000BF92CF92DF92EF92FF924B015C010E949C
:1004E00040026B017C010E9440026C197D098E095B
:1004F0009F09683E734081059105A8F321E0821AA7
:100500009108A108B10888EEC80E83E0D81EE11C4E
:10051000F11C81149104A104B10429F7FF90EF901C
:10052000DF90CF90BF90AF909F908F900895862FCF
:10053000642F0C940402862F642F0C94D601862F0E
:100540000C94AD01AF92BF92CF92DF92EF92FF92E7
:100550000F931F93CF93DF936C017B018B01040FEB
:10056000151FEB015E01AE18BF08C017D10759F087
:100570006991D601ED91FC910190F081E02DC601C9
:100580000995892B79F7C501DF91CF911F910F91C3
:10059000FF90EF90DF90CF90BF90AF900895FC0157
:1005A000538D448D252F30E0842F90E0821B930BD8
:1005B000541710F0CF96089501970895FC01918D7E
:1005C000828D981761F0A28DAE0FBF2FB11D5D9681
:1005D0008C91928D9F5F9F73928F90E008958FEF23
:1005E0009FEF0895FC01918D828D981731F0828DD7
:1005F000E80FF11D858D90E008958FEF9FEF08952E
:10060000FC01918D228D892F90E0805C9F4F821B91
:1006100091098F739927089581EA91E00E94000360
:1006200021E0892B09F420E0822F089580E090E0FA
:10063000892B29F00E940C0381110C94000008956D
:10064000FC01A48DA80FB92FB11DA35ABF4F2C9147
:10065000848D90E001968F739927848FA689B7893E
:100660002C93A089B1898C91837080648C93938D35
:10067000848D981306C00288F389E02D80818F7DD8
:1006800080830895EF92FF920F931F93CF93DF9390
:10069000EC0181E0888F9B8D8C8D98131AC0E889BE
:1006A000F989808185FF15C09FB7F894EE89FF898D
:1006B0006083E889F98980818370806480839FBF2B
:1006C00081E090E0DF91CF911F910F91FF90EF902B
:1006D0000895F62E0B8D10E00F5F1F4F0F7311273B
:1006E000E02E8C8D8E110CC00FB607FCFACFE88976
:1006F000F989808185FFF5CFCE010E942003F1CFDB
:10070000EB8DEC0FFD2FF11DE35AFF4FF0829FB7E9
:10071000F8940B8FEA89FB8980818062CFCFCF93D9
:10072000DF93EC01888D8823B9F0AA89BB89E88919
:10073000F9898C9185FD03C0808186FD0DC00FB6BF
:1007400007FCF7CF8C9185FFF2CF808185FFEDCF3D
:10075000CE010E942003E9CFDF91CF910895089543
:1007600090E080E00895FC0101900020E9F73197C6
:10077000AF01481B590BBC0185ED92E00C94A2021D
:10078000CF93DF93EC0180919B0190919C010097A6
:1007900059F020919D0130919E012C173D0720F0CA
:1007A00081E0DF91CF910895BE016F5F7F4F0E947E
:1007B000A20C009789F090939C0180939B01D093A9
:1007C0009E01C0939D0120919F013091A001232B98
:1007D00039F7FC011082E4CF80E0E3CF90E080E0C5
:1007E0000E94C00320919B0130919C01811113C094
:1007F0002115310519F0C9010E94190C10929C01B4
:1008000010929B011092A00110929F0110929E01E4
:1008100010929D0108951092A00110929F016DE524
:1008200071E0C9010C94710DCF93DF93EC0160E08E
:100830008E810E94D60161E08E810E94D60160E027
:100840008E810E94D6018BE891E00197F1F7DF914C
:10085000CF910895CF92DF92EF92FF920F931F9363
:10086000CF93DF936C017C0187E0E80EF11CD0E0B0
:10087000C0E0062F10E0B8010C2E02C075956795F8
:100880000A94E2F76170F70181917F010E94D6011D
:100890002196C430D10579F7C601DF91CF911F9120
:1008A0000F91FF90EF90DF90CF900C941404CF92B3
:1008B000DF92EF92FF920F931F93CF93DF93EC01A0
:1008C000F62E642F8C810E94D6018D818F3F19F006
:1008D00060E00E94D6010F2D10E08F8584FF25C0B7
:1008E0006E0187E0C80ED11CF12CE12CB8010E2C52
:1008F00002C0759567950A94E2F76170F6018191DF
:100900006F010E94D601FFEFEF1AFF0A88E0E81698
:10091000F10461F7CE01DF91CF911F910F91FF900C
:10092000EF90DF90CF900C941404B80184E075959B
:1009300067958A95E1F7CE010E942A046F2DCE01BA
:10094000DF91CF911F910F91FF90EF90DF90CF90AB
:100950000C942A0440E0682F85ED92E00C94570433
:1009600081E00E94AA048BE39FE10197F1F70895CB
:10097000CF93DF93823029F49091E40298609093B2
:10098000E4028093E8021092E90280E48093EA0294
:1009900080E18093EB0280E58093EC0261E080913E
:1009A000D9020E9404028091DA028F3F19F061E0BF
:1009B0000E94040261E08091DB020E940402C5ED06
:1009C000D2E09E01255D32408091E40284FD0BC09F
:1009D00084E090E021962817390744F461E08E8185
:1009E0000E940402EECF88E090E0F4CF8BE39DE01C
:1009F0000197F1F760E08091D9020E94D60160E092
:100A00008091DB020E94D6018091DA028F3F19F0BB
:100A100060E00E94D6018091E40284FD34C063E06E
:100A200085ED92E00E942A04CBE4D6E4CE01019742
:100A3000F1F763E085ED92E00E942A042197F1F737
:100A400063E085ED92E00E942A0483E592E001973D
:100A5000F1F762E085ED92E00E942A048091E402C1
:100A600080620E94AA0484E08093E5028CE00E94E8
:100A7000AA040E94B00482E08093E60286E0DF913F
:100A8000CF910C94AA0480620E94AA048BE496E49D
:100A90000197F1F78091E40280620E94AA0483E545
:100AA00092E00197F1F78091E40280620E94AA042B
:100AB000D5CF9091E802891710F08FEF890FE82FBA
:100AC000F0E0EB52FD4F848980680C94AA040F93E8
:100AD0001F93CF93DF938C01EB010E94B00480E061
:100AE0000E945905C8010E94B3038881882351F0F0
:100AF00081E00E945905CE01DF91CF911F910F91A6
:100B00000C94B303DF91CF911F910F9108950E9430
:100B1000B00480E00E9459058DE491E00E94B30387
:100B200081E00C94590541E00E94570481E090E077
:100B300008951F920F920FB60F9211242F933F9397
:100B40008F939F93AF93BF9380919701909198015A
:100B5000A0919901B0919A013091920123E0230F65
:100B60002D3758F50196A11DB11D20939201809358
:100B7000970190939801A0939901B0939A01809165
:100B8000930190919401A0919501B09196010196E5
:100B9000A11DB11D8093930190939401A0939501A1
:100BA000B0939601BF91AF919F918F913F912F91FB
:100BB0000F900FBE0F901F90189526E8230F0296F6
:100BC000A11DB11DD2CF1F920F920FB60F9211240B
:100BD0002F933F934F935F936F937F938F939F9345
:100BE000AF93BF93EF93FF9381EA91E00E942003BC
:100BF000FF91EF91BF91AF919F918F917F916F91F5
:100C00005F914F913F912F910F900FBE0F901F90CA
:100C100018951F920F920FB60F9211242F938F9356
:100C20009F93EF93FF93E091B101F091B201808126
:100C3000E091B701F091B80182FD1BC090818091D5
:100C4000BA018F5F8F732091BB01821741F0E09151
:100C5000BA01F0E0EF55FE4F958F8093BA01FF91F6
:100C6000EF919F918F912F910F900FBE0F901F903A
:100C700018958081F4CF1F920F920FB60F92112416
:100C80002F933F934F935F936F937F938F939F9394
:100C9000AF93BF93CF93DF93EF93FF93809188013E
:100CA000C0916202D0E087FF24C0109285001092AC
:100CB0008400809188018F5F8093880180918801F2
:100CC000082E000C990B8C179D0724F48091880145
:100CD0008C30C4F18091840090918500049680341A
:100CE0009C4908F47AC08091840090918500049614
:100CF00076C080918801082E000C990B8C179D07F7
:100D0000C4F6E09188018E2FEE0F990BFC01EE0FD7
:100D1000FF1FE80FF91FE25CFD4F808186FFC9CFFE
:100D2000E09188018E2FEE0F990BFC01EE0FFF1F53
:100D3000E80FF91FE25CFD4F808160E08F730E9435
:100D4000D601B7CF2091840030918500E0918801D1
:100D50008E2FEE0F990BFC01EE0FFF1FE80FF91F0E
:100D6000E25CFD4F81819281820F931F90938900F5
:100D700080938800E09188018E2FEE0F990BFC0183
:100D8000EE0FFF1FE80FF91FE25CFD4F808186FF29
:100D900011C0E09188018E2FEE0F990BFC01EE0F30
:100DA000FF1FE80FF91FE25CFD4F808161E08F7348
:100DB0000E94D601FF91EF91DF91CF91BF91AF914A
:100DC0009F918F917F916F915F914F913F912F9163
:100DD0000F900FBE0F901F90189580E49CE99093A0
:100DE0008900809388008FEF80938801E3CFCF93B1
:100DF0001092A4011092A30188EE93E0A0E0B0E06D
:100E00008093A5019093A601A093A701B093A80198
:100E100089E291E09093A2018093A10185EC90E09A
:100E20009093AE018093AD0184EC90E09093B0017B
:100E30008093AF0180EC90E09093B2018093B10178
:100E400081EC90E09093B4018093B30182EC90E048
:100E50009093B6018093B50186EC90E09093B80131
:100E60008093B7011092BA011092BB011092BC019D
:100E70001092BD011092D8021092D70285E491E041
:100E80009093D6028093D5028EE08093D902CFEF63
:100E9000C093DA028FE08093DB0280E18093DC0272
:100EA00081E18093DD0282E18093DE0283E1809321
:100EB000DF021092E0021092E1021092E202109220
:100EC000E3021092E40281E00E94B8048091620281
:100ED0008C3008F05EC091E0980F9093620280938E
:100EE000D20290E0FC01EE0FFF1FE80FF91FE25C59
:100EF000FD4F88EB9BE092838183109265021092F4
:100F000069021092680210926A028BE391E090935A
:100F1000640280936302EFE7F2E01082148213828E
:100F20001582369682E0EB3BF807B9F78BE091E04B
:100F30009093C6028093C50287E091E09093C80227
:100F40008093C70284E08093C9028093CA028FE035
:100F500091E09093C4028093C3028AE090E0909362
:100F6000CC028093CB0284EF91E09093CE028093E9
:100F7000CD021092D1021092D0021092BF021092B4
:100F8000C0021092C1021092C2021092CF02CF9101
:100F90000895C093D202B1CFCF93DF9300D0CDB7E5
:100FA000DEB7789484B5826084BD84B5816084BDE9
:100FB00085B5826085BD85B5816085BD80916E00F7
:100FC000816080936E001092810080918100826028
:100FD0008093810080918100816080938100809165
:100FE00080008160809380008091B1008460809354
:100FF000B1008091B00081608093B00080917A0050
:10100000846080937A0080917A00826080937A0075
:1010100080917A00816080937A0080917A00806864
:1010200080937A001092C100E091B101F091B20179
:1010300082E08083E091AD01F091AE011082E091F9
:10104000AF01F091B0018FEC80831092B901E09173
:10105000B501F091B60186E08083E091B301F09193
:10106000B401808180618083E091B301F091B4018B
:10107000808188608083E091B301F091B401808128
:1010800080688083E091B301F091B40180818F7D0D
:10109000808382E00E94B8048091D2028C3008F0F4
:1010A00051C061E08BE00E9404028091D202282F9F
:1010B00030E0F901EE0FFF1FE20FF31FE25CFD4F7E
:1010C0009081907C9B6090831092D3021092D40206
:1010D0002CE0622F0E946B0B829FB001112430E044
:1010E00020E0AB01420F531FFA01EE0FFF1FE40F88
:1010F000F51FE25CFD4F908196FD16C02F5F3F4FBC
:101100002C30310571F781110FC01092800082E000
:10111000809381001092850010928400B19A809192
:101120006F00826080936F00E091D2028E2F90E07A
:10113000FC01EE0FFF1FE80FF91FE25CFD4F8081FD
:10114000806480830E94870590E080E00E948C008C
:10115000412C512C32014394AA24A394B12C8091A8
:101160008A0181112BC010929C0110929B01109258
:101170009E0110929D011092A00110929F0190E09B
:1011800080E00E94C00320919B0130919C0181115D
:101190004CC02115310519F0C9010E94190C10929B
:1011A0009C0110929B011092A00110929F0110923D
:1011B0009E0110929D0151E050938A0181E080933D
:1011C000CF028FB7F89440919701509198016091A8
:1011D000990170919A018FBF8091BF029091C002D6
:1011E000A091C102B091C202481B590B6A0B7B0B44
:1011F0008091CB029091CC02B0E0A0E084179507DB
:10120000A607B70708F01CC110E08091C9021817A3
:10121000B0F4E091C502F091C602E10FF11D62E069
:1012200080810E9404021F5FF0CF1092A0011092F3
:101230009F016DE571E0C9010E94710DBCCF312C99
:101240008091CA02381608F061C0E32CF12CE091BD
:10125000C702F091C802EE0DFF1D61E080810E947F
:101260000402E091C702F091C802EE0DFF1D60E09C
:1012700080810E94D601D301C201032C04C0880FD3
:10128000991FAA1FBB1F0A94D2F74C016C01C0948E
:10129000D094212C8091C902281608F5022D10E067
:1012A000E091C502F091C602E00FF11F80810E941B
:1012B000AD010C5F1F4F000F111FF801ED59FD4FDD
:1012C000892B41F480819181882999299183808398
:1012D0002394E0CF808191818C219D21F7CFE091F3
:1012E000C702F091C802EE0DFF1D61E080810E94EF
:1012F000D6018091C7029091C802E80EF91E60E005
:10130000F70180810E94040233949ACF03E612E031
:101310007801F701878D90A1892B31F4148E8FEF1E
:101320009FEF968F858F11A296E0E90EF11CEFE9F1
:10133000EE16E2E0FE0669F7D12C8091C902D816BC
:1013400008F053C0C12C8D2C912C880C991CC40121
:1013500085599D4F4C012091CA02C21608F043C026
:10136000F401608171810C2C02C0769567950A9416
:10137000E2F7D29E900111242C0D311DE3E6F2E03C
:1013800080E0458D568D2417350709F408C18F5F1D
:1013900036968A30B1F760FF24C0E3E6F2E090E0D1
:1013A00080E0448D411118C0E091C302F091C40265
:1013B000E20FF31F408156E0589FF001599FF00D56
:1013C0001124ED59FD4F448F368F258F10A2178EB3
:1013D00061E00E94140105C0019636968A3091059D
:1013E00001F7C394B8CFD394A8CF80E0F80191A1BE
:1013F0009111892F0A5F1F4FE016F106B9F79FB7C9
:10140000F8944091970150919801609199017091E1
:101410009A019FBF4093BF025093C0026093C102E4
:101420007093C202882361F080918402882341F086
:10143000809182029091830210917F02019719F0AE
:101440001092CF0210E08091050190910601019762
:1014500009F082C0112309F44BC0133429F40E940F
:10146000EE030E94870544C01D3309F04EC0409131
:101470009F015091A00160919B0170919C0181EAB4
:1014800091E00E94A20242E050E06BE571E081EA47
:1014900091E00E94A20280919F019091A001892B6E
:1014A00099F4809100018823C9F00E94EE036DE554
:1014B00071E08EE591E00E94670568EE73E080E0E0
:1014C00090E00E946502CDCF60E071E080919B01C9
:1014D00090919C010E94680D892B39F78AE590E074
:1014E0000E948C0010920601109205010E94EE03EA
:1014F00080E090E0892B09F432CE0E940C0388230F
:1015000009F42DCE0E9400002ACE41E0612F85ED26
:1015100092E00E94570419831A8200919F01109152
:10152000A0010F5F1F4FC8010E94C003882301F371
:1015300020919B0130919C0180919F019091A0018D
:10154000BE016F5F7F4F820F931F0E94710D10933A
:10155000A00100939F01CCCF80918901811109C026
:101560006CE671E08BE791E00E946705F1E0F09393
:1015700089011F3209F0BCCF90E080E00E948C000E
:10158000B0920601A0920501109289010E94870580
:1015900064E670E080E090E00E946502A9CF61708F
:1015A00018CF052E97FB1EF400940E94E80A57FD01
:1015B00007D00E943A0B07FC03D04EF40C94E80AC3
:1015C00050954095309521953F4F4F4F5F4F08956F
:1015D00090958095709561957F4F8F4F9F4F08959F
:1015E0000E945C0BA59F900DB49F900DA49F800D51
:1015F000911D11240895B7FF0C94F00A0E94F00A7F
:10160000821B930B08952F923F924F925F926F929D
:101610007F928F929F92AF92BF92CF92DF92EF9282
:10162000FF920F931F93CF93DF93CDB7DEB7CA1B03
:10163000DB0B0FB6F894DEBF0FBECDBF09942A882E
:10164000398848885F846E847D848C849B84AA84D6
:10165000B984C884DF80EE80FD800C811B81AA8163
:10166000B981CE0FD11D0FB6F894DEBF0FBECDBF2E
:10167000ED010895A1E21A2EAA1BBB1BFD010DC0AE
:10168000AA1FBB1FEE1FFF1FA217B307E407F50732
:1016900020F0A21BB30BE40BF50B661F771F881F0E
:1016A000991F1A9469F760957095809590959B01A4
:1016B000AC01BD01CF010895A29FB001B39FC0014D
:1016C000A39F700D811D1124911DB29F700D811D6E
:1016D0001124911D0895991B79E004C0991F961754
:1016E00008F0961B881F7A95C9F780950895EE0F2C
:1016F000FF1F0590F491E02D09940F931F93CF9352
:10170000DF938230910510F482E090E0E091EF02E7
:10171000F091F00230E020E0B0E0A0E0309799F4E2
:101720002115310509F44AC0281B390B2430310535
:10173000D8F58A819B816115710589F1FB0193833D
:101740008283FE0111C040815181028113814817BB
:101750005907E0F04817590799F4109761F012966D
:101760000C93129713961C933296CF01DF91CF9171
:101770001F910F9108950093EF021093F002F4CFA0
:101780002115310551F04217530738F0A901DB014B
:101790009A01BD01DF01F801C1CFEF01F9CF9093AC
:1017A000F0028093EF02CDCFFE01E20FF31F819391
:1017B00091932250310939832883D7CF2091ED02AC
:1017C0003091EE02232B41F420912101309122012E
:1017D0003093EE022093ED0220911F013091200101
:1017E0002115310541F42DB73EB7409123015091A9
:1017F0002401241B350BE091ED02F091EE02E2177B
:10180000F307A0F42E1B3F0B2817390778F0AC0123
:101810004E5F5F4F2417350748F04E0F5F1F509300
:10182000EE024093ED02819391939FCFF0E0E0E0D0
:101830009CCFCF93DF930097E9F0FC01329713829E
:101840001282A091EF02B091F002ED0130E020E0B1
:101850001097A1F420813181820F931F2091ED0216
:101860003091EE022817390709F061C0F093EE02BB
:10187000E093ED02DF91CF910895EA01CE17DF07E3
:10188000E8F54A815B819E0141155105B1F7E901F7
:10189000FB83EA8349915991C40FD51FEC17FD07CB
:1018A00061F4808191810296840F951FE9019983EB
:1018B0008883828193819B838A83F0E0E0E01296A3
:1018C0008D919C9113970097B9F52D913C911197AB
:1018D000CD010296820F931F2091ED023091EE020E
:1018E0002817390739F6309751F51092F002109207
:1018F000EF02B093EE02A093ED02BCCFD383C2837C
:1019000040815181840F951FC817D90761F44E5F3C
:101910005F4F88819981480F591F518340838A8185
:101920009B81938382832115310509F0B0CFF09319
:10193000F002E093EF029ECFFD01DC01C0CF1382E5
:101940001282D7CFB0E0A0E0E8EAFCE00C94050BEF
:101950008C01009751F4CB010E947D0B8C01C801D2
:10196000CDB7DEB7E0E10C94210BFC01E60FF71FC9
:101970009C0122503109E217F30708F49DC0D901F8
:10198000CD91DC911197C617D70798F0C530D105D6
:1019900030F3CE0104978617970708F3C61BD70BC1
:1019A0002297C193D1936D937C93CF010E94190C20
:1019B000D6CF5B01AC1ABD0A4C018C0E9D1EA091C6
:1019C000EF02B091F002512C412CF12CE12C109738
:1019D00031F58091ED029091EE028815990509F09C
:1019E0005CC04616570608F058C080911F019091C0
:1019F0002001009741F48DB79EB74091230150918B
:101A00002401841B950BE817F90708F055C0F093E3
:101A1000EE02E093ED02F90171836083A0CF8D9116
:101A20009C91119712966C90129713967C90139735
:101A3000A815B90559F56C0142E0C40ED11CCA14B1
:101A4000DB0420F1AC014A195B09DA011296159703
:101A500080F06282738251834083D9016D937C93BD
:101A6000E114F10471F0D7011396FC93EE931297F1
:101A700076CF22968C0F9D1FF90191838083F3010D
:101A8000EFCFF093F002E093EF0269CF48165906CA
:101A900008F42C017D01D3019ACFCB010E947D0B6C
:101AA0007C01009749F0AE01B8010E945F0DC801AA
:101AB0000E94190C870153CF10E000E050CFFB01CA
:101AC000DC0102C001900D9241505040D8F70895BA
:101AD000FB01DC018D91019080190110D9F3990B64
:101AE0000895FB01DC0101900D920020E1F70895BB
:101AF000F894FFCF313233340001000504030209AA
:101B00000807063132332A3435362A3738392F431D
:101B1000303D230000F1028000000000004203A2DB
:101B200002CF028F030003DE02F2020000000097E2
:101B3000029B029F02000000009305A202B003AFC7
:101B400003456E746572205468652050696E000DFF
:101B50000A00496E636F72726563742050696E008B
:101B6000636C6F73652074686520646F6F720045E5
:0C1B70006E7465722027432720746F00FC
:107E0000112484B714BE81FFF0D085E080938100F7
:107E100082E08093C00088E18093C10086E0809377
:107E2000C20080E18093C4008EE0C9D0259A86E02C
:107E300020E33CEF91E0309385002093840096BBD3
:107E4000B09BFECF1D9AA8958150A9F7CC24DD24C4
:107E500088248394B5E0AB2EA1E19A2EF3E0BF2EE7
:107E6000A2D0813461F49FD0082FAFD0023811F036
:107E7000013811F484E001C083E08DD089C08234E0
:107E800011F484E103C0853419F485E0A6D080C0E4
:107E9000853579F488D0E82EFF2485D0082F10E0AE
:107EA000102F00270E291F29000F111F8ED06801E7
:107EB0006FC0863521F484E090D080E0DECF843638
:107EC00009F040C070D06FD0082F6DD080E0C81688
:107ED00080E7D80618F4F601B7BEE895C0E0D1E017
:107EE00062D089930C17E1F7F0E0CF16F0E7DF06D8
:107EF00018F0F601B7BEE89568D007B600FCFDCFD4
:107F0000A601A0E0B1E02C9130E011968C91119780
:107F100090E0982F8827822B932B1296FA010C0160
:107F200087BEE89511244E5F5F4FF1E0A038BF0790
:107F300051F7F601A7BEE89507B600FCFDCF97BE46
:107F4000E89526C08437B1F42ED02DD0F82E2BD052
:107F50003CD0F601EF2C8F010F5F1F4F84911BD097
:107F6000EA94F801C1F70894C11CD11CFA94CF0C13
:107F7000D11C0EC0853739F428D08EE10CD085E9AC
:107F80000AD08FE07ACF813511F488E018D01DD067
:107F900080E101D065CF982F8091C00085FFFCCF94
:107FA0009093C60008958091C00087FFFCCF809118
:107FB000C00084FD01C0A8958091C6000895E0E648
:107FC000F0E098E1908380830895EDDF803219F02E
:107FD00088E0F5DFFFCF84E1DECF1F93182FE3DFCA
:107FE0001150E9F7F2DF1F91089580E0E8DFEE27F6
:047FF000FF270994CA
:027FFE00040479
:00000001FF
